:100000002DC009C09DE994BF80930010809102101B
:100010008370E1F70895FC016083089590910408CE
:1000200095FFFCCF8093020808958091040887FF14
:10003000FCCF909101088091000892FFA895179A33
:100040000895F3DF803209F0DBCF84E1E7CFCF936F
:10005000C82FEBDFC150E9F7CF91F3CF1124809186
:100060004000809340008CBB811105C098ED21E0D9
:1000700094BF20934100E39902C0843008F4C0C0CB
:10008000079A8091821280FF2CC08CE5809308082B
:1000900083E08093070880EC8093060886E0179A37
:1000A00028E93AE39091040897FD05C021503109F1
:1000B000C9F78150A1F788ED98E084BF90930001C3
:1000C00083E0D82EB2DF813491F4AFDFF82EB9DFB0
:1000D00082E8F81641F081E8F81207C083E09EDF5D
:1000E0000AC083E7D3CF87E0FACF80E0F8CF82342D
:1000F00029F484E1ACDF80E191DFE4CF853411F4B1
:1001000085E0F8CF853531F490DFC82F8EDFD82F0A
:1001100098DFF1CF8436C9F488DF182F86DF082FE7
:1001200084DF863481F4D058809102108370E1F727
:100130007CDF8883219601501109D1F78DE984BFB6
:10014000D0920010E5CFDC5EEFCF843791F46DDF05
:10015000182F6BDF082F69DF863449F4D05871DF20
:10016000888121965BDF01501109D1F7C4CFDC5E95
:10017000F6CF853749F465DF8EE150DF80910111BC
:0C0180004DDF80910211ABCF229AC2CF5C
:00000001FF
