:100000002DC009C09DE994BF80930010809102101B
:100010008370E1F70895FC016083089590910408CE
:1000200095FFFCCF8093020808958091040887FF14
:10003000FCCF909101088091000892FFA895139A37
:100040000895F3DF803209F0DBCF84E1E7CFCF936F
:10005000C82FEBDFC150E9F7CF91F3CF1124809186
:100060004000809340008CBB811105C098ED21E0D9
:1000700094BF20934100E39902C0843008F4C0C0CB
:10008000039A81E0809301028091821280FF2AC04E
:100090008CE58093080883E08093070880EC8093C8
:1000A000060886E0139A28E93AE39091040897FD40
:1000B00005C021503109C9F78150A1F788ED98E0BA
:1000C00084BF90930001B1DF813491F4AEDFF82E4C
:1000D000B8DF82E8F81641F081E8F81207C083E043
:1000E0009DDF0AC083E7D5CF87E0FACF80E0F8CF65
:1000F000823429F484E1ABDF80E190DFE4CF853402
:1001000011F485E0F8CF853531F48FDFC82F8DDF0E
:10011000D82F97DFF1CF8436A9F487DF182F85DF3A
:10012000082F83DF863461F4D05880E06BDF7DDFF9
:100130008883219601501109D1F783E063DFE9CF6D
:10014000DC5EF3CF843791F470DF182F6EDF082F59
:100150006CDF863449F4D05874DF888121965EDFE5
:1001600001501109D1F7C8CFDC5EF6CF853749F4CD
:1001700068DF8EE153DF8091011150DF8091021121
:06018000AFCF019AC6CFCB
:00000001FF
