:100000002DC009C09DE994BF80930010809102101B
:100010008370E1F70895FC016083089590912408AE
:1000200095FFFCCF8093220808958091240887FFD4
:10003000FCCF909121088091200892FFA895179AF3
:100040000895F3DF803209F0DBCF84E1E7CFCF936F
:10005000C82FEBDFC150E9F7CF91F3CF1124809186
:100060004000809340008CBB811105C098ED21E0D9
:1000700094BF20934100E39902C0843008F4C0C0CB
:10008000079A1092E2058091821280FF2CC08CE5C5
:100090008093280883E08093270880EC80932608CB
:1000A00086E0179A28E93AE39091240897FD05C065
:1000B00021503109C9F78150A1F788ED98E084BF3C
:1000C0009093000183E0D82EB0DF813491F4ADDF4E
:1000D000F82EB7DF82E8F81641F081E8F81207C081
:1000E00083E09CDF0AC083E7D3CF87E0FACF80E0CC
:1000F000F8CF823429F484E1AADF80E18FDFE4CFF6
:10010000853411F485E0F8CF853531F48EDFC82FC2
:100110008CDFD82F96DFF1CF8436C9F486DF182F15
:1001200084DF082F82DF863481F4D058809102105A
:100130008370E1F77ADF8883219601501109D1F7A6
:100140008DE984BFD0920010E5CFDC5EEFCF84371D
:1001500091F46BDF182F69DF082F67DF863449F4CD
:10016000D0586FDF8881219659DF01501109D1F7EE
:10017000C4CFDC5EF6CF853749F463DF8EE14EDF16
:10018000809101114BDF80910211ABCF429AC2CF17
:00000001FF
