:100000002DC009C09DE994BF80930010809102101B
:100010008370E1F70895FC016083089590910408CE
:1000200095FFFCCF8093020808958091040887FF14
:10003000FCCF909101088091000892FFA895139A37
:100040000895F3DF803209F0DBCF84E1E7CFCF936F
:10005000C82FEBDFC150E9F7CF91F3CF1124809186
:100060004000809340008CBB811105C098ED21E0D9
:1000700094BF20934100E39902C0843008F4C0C0CB
:10008000039A8091821280FF2AC08CE58093080831
:1000900083E08093070880EC8093060886E0139A3B
:1000A00028E93AE39091040897FD05C021503109F1
:1000B000C9F78150A1F788ED98E084BF90930001C3
:1000C000B4DF813491F4B1DFF82EBBDF82E8F8169B
:1000D00041F081E8F81207C083E0A0DF0AC083E79F
:1000E000D5CF87E0FACF80E0F8CF823429F484E1DD
:1000F000AEDF80E193DFE4CF853411F485E0F8CF03
:10010000853531F492DFC82F90DFD82F9ADFF1CFF9
:100110008436A9F48ADF182F88DF082F86DF86341B
:1001200061F4D05880E06EDF80DF88832196015033
:100130001109D1F783E066DFE9CFDC5EF3CF8437C6
:1001400091F473DF182F71DF082F6FDF863449F4C5
:10015000D05877DF8881219661DF01501109D1F7EE
:10016000C8CFDC5EF6CF853749F46BDF8EE156DF12
:100170008091011153DF80910211AFCF069AC6CF53
:00000001FF
