:100000002DC009C09DE994BF80930010809102101B
:100010008370E1F70895FC0160830895909164086E
:1000200095FFFCCF8093620808958091640887FF54
:10003000FCCF909161088091600892FFA895179A73
:100040000895F3DF803209F0DBCF84E1E7CFCF936F
:10005000C82FEBDFC150E9F7CF91F3CF1124809186
:100060004000809340008CBB811105C098ED21E0D9
:1000700094BF20934100E39902C0843008F4C0C0CB
:10008000079A80E48093E2058091821280FF2AC063
:100090008CE58093680883E08093670880EC809308
:1000A000660886E0179A28E93AE39091640897FD7C
:1000B00005C021503109C9F78150A1F788ED98E0BA
:1000C00084BF90930001B1DF813491F4AEDFF82E4C
:1000D000B8DF82E8F81641F081E8F81207C083E043
:1000E0009DDF0AC083E7D5CF87E0FACF80E0F8CF65
:1000F000823429F484E1ABDF80E190DFE4CF853402
:1001000011F485E0F8CF853531F48FDFC82F8DDF0E
:10011000D82F97DFF1CF8436A9F487DF182F85DF3A
:10012000082F83DF863461F4D05C80E06BDF7DDFF5
:100130008883219601501109D1F783E063DFE9CF6D
:10014000DC5EF3CF843791F470DF182F6EDF082F59
:100150006CDF863449F4D05C74DF888121965EDFE1
:1001600001501109D1F7C8CFDC5EF6CF853749F4CD
:1001700068DF8EE153DF8091011150DF8091021121
:06018000AFCF249AC6CFA8
:00000001FF
