:100000000DC009C09DE994BF80930010809102103B
:100010008370E1F70895FC016083089511248091B5
:100020004000811105C098ED21E094BF209341006C
:1000300083FD02C0823021F4809340008CBBE0C07D
:1000400088E09ED0109201028091821283708130EC
:1000500059F58CE580930808069A83E08093070899
:1000600080EC80930608039A86E0139A20E23EE42F
:10007000A8959091040897FD06C021503109C1F759
:10008000815099F7A89583E0D82E6ED0813491F4F1
:100090006BD0F82E7ED082E8F81641F081E8F81295
:1000A00007C089E25AD00AC083E7D4CF82E0FACFF2
:1000B00083E0F8CF823429F484E173D080E14DD01D
:1000C000E4CF853411F485E0F8CF853531F44CD098
:1000D000C82F4AD0D82F5DD0F1CF8436C9F444D090
:1000E000182F42D0082F40D0863481F4D058809108
:1000F00002108370E1F738D08883219601501109EE
:10010000D1F78DE984BFD0920010E5CFDC5EEFCF50
:10011000843791F429D0182F27D0082F25D0863482
:1001200049F4D05836D08881219617D00150110952
:10013000D1F7C4CFDC5EF6CF853749F42AD08EE103
:100140000CD08091011109D080910211ABCF813583
:1001500009F0C1CF86E014D0BECF9091040895FF7E
:10016000FCCF8093020808958091040887FFFCCF9C
:10017000909101088091000892FFA895139A089524
:100180009091010190FDFCCF98ED94BF8093000108
:100190000895EADF803219F081E0F2DFFFCF84E1D9
:1001A000DCCFCF93C82FE0DFC150E9F7CF91F1CF7B
:0201FE000229D4
:00000001FF
