:100000002DC009C09DE994BF80930010809102101B
:100010008370E1F70895FC016083089590912408AE
:1000200095FFFCCF8093220808958091240887FFD4
:10003000FCCF909121088091200892FFA895179AF3
:100040000895F3DF803209F0DBCF84E1E7CFCF936F
:10005000C82FEBDFC150E9F7CF91F3CF1124809186
:100060004000809340008CBB811105C098ED21E0D9
:1000700094BF20934100E39902C0843008F4C0C0CB
:10008000079A1092E2058091821280FF2AC08CE5C7
:100090008093280883E08093270880EC80932608CB
:1000A00086E0179A28E93AE39091240897FD05C065
:1000B00021503109C9F78150A1F788ED98E084BF3C
:1000C00090930001B2DF813491F4AFDFF82EB9DFF5
:1000D00082E8F81641F081E8F81207C083E09EDF5D
:1000E0000AC083E7D5CF87E0FACF80E0F8CF82342B
:1000F00029F484E1ACDF80E191DFE4CF853411F4B1
:1001000085E0F8CF853531F490DFC82F8EDFD82F0A
:1001100098DFF1CF8436A9F488DF182F86DF082F07
:1001200084DF863461F4D05880E06CDF7EDF888322
:10013000219601501109D1F783E064DFE9CFDC5E3D
:10014000F3CF843791F471DF182F6FDF082F6DDF45
:10015000863449F4D05875DF888121965FDF0150DD
:100160001109D1F7C8CFDC5EF6CF853749F469DFD6
:100170008EE154DF8091011151DF80910211AFCFE8
:04018000429AC6CF0A
:00000001FF
