:100000000DC009C09DE994BF80930010809102103B
:100010008370E1F70895FC016083089511248091B5
:100020004000811105C098ED21E094BF209341006C
:1000300083FD02C0823021F4809340008CBBE0C07D
:1000400088E0A5D01092E205809182128370813001
:1000500059F58CE580934808A09A83E0809347087F
:1000600080EC80934608079A86E0179A20E23EE4E7
:10007000A8959091440897FD06C021503109C1F719
:10008000815099F7A89583E0D82E75D0813491F4EA
:1000900072D0F82E85D082E8F81641F081E8F81287
:1000A00007C089E261D00AC083E7D4CF82E0FACFEB
:1000B00083E0F8CF823429F484E17AD080E154D00F
:1000C000E4CF853411F485E0F8CF853531F453D091
:1000D000C82F51D0D82F64D0F1CF863521F484E0D9
:1000E00067D080E0DFCF8436D1F445D0182F43D0DD
:1000F000082F41D0863489F4D05C3DD08883219686
:1001000001501109D1F74CD08DE984BFD092001075
:10011000809102108370E1F7D1CFDC5EEECF84379F
:1001200091F429D0182F27D0082F25D0863449F4F0
:10013000D05C36D08881219617D001501109D1F7B3
:10014000BDCFDC5EF6CF853749F42AD08EE10CD0E6
:100150008091011109D080910211A4CF813509F05D
:10016000BACF86E014D0B7CF9091440895FFFCCF6A
:100170008093420808958091440887FFFCCF9091B6
:1001800041088091400892FFA895179A0895909190
:10019000010190FDFCCF98ED94BF8093000108957C
:1001A000EADF803219F081E0F2DFFFCF84E1DCCFBB
:0E01B000CF93C82FE0DFC150E9F7CF91F1CF18
:0201FE000229D4
:00000001FF
