:100000002DC009C09DE994BF80930010809102101B
:100010008370E1F70895FC016083089590910408CE
:1000200095FFFCCF8093020808958091040887FF14
:10003000FCCF909101088091000892FFA895179A33
:100040000895F3DF803209F0DBCF84E1E7CFCF936F
:10005000C82FEBDFC150E9F7CF91F3CF1124809186
:100060004000809340008CBB811105C098ED21E0D9
:1000700094BF20934100E39902C0843008F4C0C0CB
:10008000079A81E0809301028091821280FF2CC048
:100090008CE58093080883E08093070880EC8093C8
:1000A000060886E0179A28E93AE39091040897FD3C
:1000B00005C021503109C9F78150A1F788ED98E0BA
:1000C00084BF9093000183E0D82EAFDF813491F498
:1000D000ACDFF82EB6DF82E8F81641F081E8F812BE
:1000E00007C083E09BDF0AC083E7D3CF87E0FACF66
:1000F00080E0F8CF823429F484E1A9DF80E18EDF4B
:10010000E4CF853411F485E0F8CF853531F48DDF07
:10011000C82F8BDFD82F95DFF1CF8436C9F485DF68
:10012000182F83DF082F81DF863481F4D058809127
:1001300002108370E1F779DF88832196015011095D
:10014000D1F78DE984BFD0920010E5CFDC5EEFCF10
:10015000843791F46ADF182F68DF082F66DF863452
:1001600049F4D0586EDF8881219658DF015011097B
:10017000D1F7C4CFDC5EF6CF853749F462DF8EE17C
:100180004DDF809101114ADF80910211ABCF019ABE
:02019000C2CFDC
:00000001FF
